A0000761002IGC7021.00.01        00004982003040411S03641120000166000000000                                                                                                                                                                 000001
B000076100203641120000166PREFEITURA MUNICIPAL DE PINHEIRO                  PRACA JOSE SARNEY 564              65200000PINHEIRO                      CENTRO                        MA                                                      000002
C000176100210000331400   0062N4                                                                                                                                                                                                           000003
D0000761002CONTRIBUINTE             IM        INSCRICAO MUNICIPAL                               A12999999999-99                                                                                                                           000004
E0000761002IMPOSTO PREDIAL E TERRITORIAL URBANO    IPTU                                                SECRETARIA MUNICIPAL DE ADM E FINANCAS  ANO       2002      01000000000000100COMPOSICAO                O          N0000SS          000005
F0000761002IMOVEL         IC        INSCRICAO CADASTRAL                     A1099999999-9               CARACTERISTICAS                                                                                                                   000006
G00007610021VALOR VENAL                                                                                                                                                                                                                   000007
K00017610021111202IPTU                     000050                                                                                                                                                                                         000008
L0001761002COTA UNICA                      C00200305152002      00000                                                                                                                                                                     000009
S00007610020000012003040120030515010000000000012O                                            100000000000000                                                                                                                              000010
T0000761002000001FRANCISCA RIBEIR0 RODRIGUES             11000041-94              000000000000000AVENIDA GETULIO VARGAS 222         65200000PINHEIRO                      CENTRO                        MA                                000011
U0000761002000001000000000120000000000000000000000000000000000000000000000000000000000000000000000000000000000000000000000000000000000000000000000000000000000000                                                                         000012
V000076100200000131000050-0                                                       AVENIDA GETULIO VARGAS 222         65200000PINHEIRO                      CENTRO                        MA                                               000013
W00007610020000011992                                                                                                                                                                                                                     000014
Y0001761002000001C002003051500000001250816200000007125033142006305150000001003100005002                                                                                                                                                   000015
S00007610020000022003040120030515010000000000068O                                            100000000000000                                                                                                                              000016
T0000761002000002AMADEU DE JESUS OLIVEIRA                11000039-60              000000000000000AVENIDA TARQUINIO LOPES 1360       65200000PINHEIRO                      CENTRO                        MA                                000017
U0000761002000002000000000680000000000000000000000000000000000000000000000000000000000000000000000000000000000000000000000000000000000000000000000000000000000000                                                                         000018
V000076100200000231000051-8                                                       AVENIDA TARQUINIO LOPES 1360       65200000PINHEIRO                      CENTRO                        MA                                               000019
W000076100200000218216                                                                                                                                                                                                                    000020
Y0001761002000002C002003051500000006831816100000008683133142003305150000001003100005184                                                                                                                                                   000021
S00007610020000032003040120030515010000000000031O                                            100000000000000                                                                                                                              000022
T0000761002000003LUIS BELO FONSECA                       11000042-75              000000000000000RUA FLORIANO PEIXOTO 874           65200000PINHEIRO                      CENTRO                        MA                                000023
U0000761002000003000000000310000000000000000000000000000000000000000000000000000000000000000000000000000000000000000000000000000000000000000000000000000000000000                                                                         000024
V000076100200000331000052-6                                                       RUA FLORIANO PEIXOTO 874           65200000PINHEIRO                      CENTRO                        MA                                               000025
W00007610020000038319                                                                                                                                                                                                                     000026
Y0001761002000003C002003051500000003120816100000008312033142000305150000001003100005267                                                                                                                                                   000027
S00007610020000042003040120030515010000000000014O                                            100000000000000                                                                                                                              000028
T0000761002000004JOSE PEDRO                              11000043-56              000000000000000RUA PROJETADA 68                   65200000PINHEIRO                      SANTA LUZIA                   MA                                000029
U0000761002000004000000000140000000000000000000000000000000000000000000000000000000000000000000000000000000000000000000000000000000000000000000000000000000000000                                                                         000030
V000076100200000431000053-4                                                       RUA PROJETADA 68                   65200000PINHEIRO                      SANTA LUZIA                   MA                                               000031
W00007610020000043951,75                                                                                                                                                                                                                  000032
Y0001761002000004C002003051500000001482816100000008148233142006305150000001003100005341                                                                                                                                                   000033
S00007610020000052003040120030515010000000000018O                                            100000000000000                                                                                                                              000034
T0000761002000005MARILOIDE SILVA LEITE                   11000044-37              000000000000000RUA ALBINO PAIVA 932               65200000PINHEIRO                      CENTRO                        MA                                000035
U0000761002000005000000000180000000000000000000000000000000000000000000000000000000000000000000000000000000000000000000000000000000000000000000000000000000000000                                                                         000036
V000076100200000531000054-2                                                       RUA ALBINO PAIVA 932               65200000PINHEIRO                      CENTRO                        MA                                               000037
W00007610020000055010,75                                                                                                                                                                                                                  000038
Y0001761002000005C002003051500000001879816500000004187933142007305150000001003100005424                                                                                                                                                   000039
S00007610020000062003040120030515010000000000071O                                            100000000000000                                                                                                                              000040
T0000761002000006AMADEU DE JESUS OLIVEIRA                11000039-60              000000000000000AVENIDA TARQUINIO LOPES 1360       65200000PINHEIRO                      CENTRO                        MA                                000041
U0000761002000006000000000710000000000000000000000000000000000000000000000000000000000000000000000000000000000000000000000000000000000000000000000000000000000000                                                                         000042
V000076100200000631000055-0                                                       AVENIDA TARQUINIO LOPES 1360       65200000PINHEIRO                      CENTRO                        MA                                               000043
W000076100200000618966                                                                                                                                                                                                                    000044
Y0001761002000006C002003051500000007112816200000007711233142001305150000001003100005507                                                                                                                                                   000045
S00007610020000072003040120030515010000000000121O                                            100000000000000                                                                                                                              000046
T0000761002000007SOARES E IRMAOS LTDA                    11000045-18              000000000000000AVENIDA GETULIO VARGAS 901         65200000PINHEIRO                      CENTRO                        MA                                000047
U0000761002000007000000001210000000000000000000000000000000000000000000000000000000000000000000000000000000000000000000000000000000000000000000000000000000000000                                                                         000048
V000076100200000731000056-8                                                       AVENIDA GETULIO VARGAS 901         65200000PINHEIRO                      CENTRO                        MA                                               000049
W000076100200000732504,25                                                                                                                                                                                                                 000050
Y0001761002000007C002003051500000012189816200000015218933142000305150000001003100005689                                                                                                                                                   000051
S00007610020000082003040120030515010000000000024O                                            100000000000000                                                                                                                              000052
T0000761002000008ANTONIO SODRE FONSECA                   11000046-99              000000000000000RUA FLORIANO PEIXOTO 876           65200000PINHEIRO                      CENTRO                        MA                                000053
U0000761002000008000000000240000000000000000000000000000000000000000000000000000000000000000000000000000000000000000000000000000000000000000000000000000000000000                                                                         000054
V000076100200000831000057-6                                                       RUA FLORIANO PEIXOTO 876           65200000PINHEIRO                      CENTRO                        MA                                               000055
W00007610020000086415,5                                                                                                                                                                                                                   000056
Y0001761002000008C002003051500000002406816300000006240633142007305150000001003100005762                                                                                                                                                   000057
S00007610020000092003040120030515010000000000047O                                            100000000000000                                                                                                                              000058
T0000761002000009FRANCISCA RIBEIR0 RODRIGUES             11000041-94              000000000000000AVENIDA GETULIO VARGAS 222         65200000PINHEIRO                      CENTRO                        MA                                000059
U0000761002000009000000000470000000000000000000000000000000000000000000000000000000000000000000000000000000000000000000000000000000000000000000000000000000000000                                                                         000060
V000076100200000931000058-4                                                       AVENIDA GETULIO VARGAS 858         65200000PINHEIRO                      CENTRO                        MA                                               000061
W000076100200000912624                                                                                                                                                                                                                    000062
Y0001761002000009C002003051500000004734816600000003473433142006305150000001003100005846                                                                                                                                                   000063
S00007610020000102003040120030515010000000000069O                                            100000000000000                                                                                                                              000064
T0000761002000010AMADEU DE JESUS OLIVEIRA                11000039-60              000000000000000AVENIDA TARQUINIO LOPES 1360       65200000PINHEIRO                      CENTRO                        MA                                000065
U0000761002000010000000000690000000000000000000000000000000000000000000000000000000000000000000000000000000000000000000000000000000000000000000000000000000000000                                                                         000066
V000076100200001031000059-2                                                       AVENIDA TARQUINIO LOPES 1360       65200000PINHEIRO                      CENTRO                        MA                                               000067
W000076100200001018658,5                                                                                                                                                                                                                  000068
Y0001761002000010C002003051500000006997816600000003699733142003305150000001003100005929                                                                                                                                                   000069
Z9999761002                                                                                                                                                                                                                               000070
