1020000000000000000090006902020080   0000000000000000000000000000000001226075               000000000000 0090607061700930072671226075             0806170000000008000001005660100000000000000000000000000             000000000000000000000000000000000000000000000000800000000000000000000000000000   070617                 000000COMP                                                                  000002
1020000000000000000090006902020080   0000000000000000000000000000000001226071               000000000000 0090607061700930072631226071             0806170000000001500104020630100000000000000000000000000             000000000000000000000000000000000000000000000000150000000000000000000000000000   070617                 000000COMP                                                                  000003
1020000000000000000090006902020080   0000000000000000000000000000000001226070               000000000000 0090607061700930072621226070             0806170000000001500001006130100000000000000000000000000             000000000000000000000000000000000000000000000000150000000000000000000000000000   070617                 000000COMP                                                                  000004
1020000000000000000090006902020080   0000000000000000000000000000000001226064               000000000000 0090607061700930072591226064             0806170000000004000104020630100000000000000000000000000             000000000000000000000000000000000000000000000000400000000000000000000000000000   070617                 000000COMP                                                                  000005
1020000000000000000090006902020080   0000000000000000000000000000000001226061               000000000000 0090607061700910036891226061             0806170000000003150001005660100000000000000000000000000             000000000000000000000000000000000000000000000000315000000000000000000000000000   070617                 000000COMP                                                                  000006
1020000000000000000090006902020080   0000000000000000000000000000000001226060               000000000000 0090607061700930072561226060             0806170000000001500001005660100000000000000000000000000             000000000000000000000000000000000000000000000000150000000000000000000000000000   070617                 000000COMP                                                                  000007
1020000000000000000090006902020080   0000000000000000000000000000000001226046               000000000000 0090607061700810040271226046             0806170000000003000001005660100000000000000000000000000             000000000000000000000000000000000000000000000000300000000000000000000000000000   070617                 000000COMP                                                                  000008
1020000000000000000090006902020080   0000000000000000000000000000000001226035               000000000000 0090607061700930072421226035             1506170000000001500001005660100000000000000000000000000             000000000000000000000000000000000000000000000000150000000000000000000000000000   070617                 000000COMP                                                                  000009
1020000000000000000090006902020080   0000000000000000000000000000000001226022               000000000000 0090607061700930072301226022             0806170000000001500237007860100000000000000000000000000             000000000000000000000000000000000000000000000000150000000000000000000000000000   070617                 000000COMP                                                                  000010
1020000000000000000090006902020080   0000000000000000000000000000000001226014               000000000000 0090607061700750025651226014             2006170000000013272001005660100000000000000000000000000             000000000000000000000000000000000000000000000001327200000000000000000000000000   070617                 000000COMP                                                                  000011
1020000000000000000090006902020080   0000000000000000000000000000000001226013               000000000000 0090607061700750025641226013             2006170000000039816001005660100000000000000000000000000             000000000000000000000000000000000000000000000003981600000000000000000000000000   070617                 000000COMP                                                                  000012
1020620074500018000090006902020080   0000000000000000000000000000000001226003               000000000000 009030706170081004021                    0606170000000001250003000000100000000000000000000000000             000000000000000000000000000000000000000000000000000000000000000000000000000000   000000                 0000000000                                                                  000013
1020620074500018000090006902020080   0000000000000000000000000000000001226082               000000000000 009030706170093007270                    0706170000000001500003000000100000000000000000000000000             000000000000000000000000000000000000000000000000000000000000000000000000000000   000000                 0000000000                                                                  000014
1020620074500018000090006902020080   0000000000000000000000000000000001226081               000000000000 009030706170081004034                    0706170000000039505003000000100000000000000000000000000             000000000000000000000000000000000000000000000000000000000000000000000000000000   000000                 0000000000                                                                  000015
1020620074500018000090006902020080   0000000000000000000000000000000001226080               000000000000 009030706170093007158                    0706170000000010000003000000100000000000000000000000000             000000000000000000000000000000000000000000000000000000000000000000000000000000   000000                 0000000000                                                                  000016
1020620074500018000090006902020080   0000000000000000000000000000000001226079               000000000000 009030706170093007156                    0706170000000010000003000000100000000000000000000000000             000000000000000000000000000000000000000000000000000000000000000000000000000000   000000                 0000000000                                                                  000017
1020620074500018000090006902020080   0000000000000000000000000000000001226077               000000000000 009030706170093007269                    0706170000000001500003000000100000000000000000000000000             000000000000000000000000000000000000000000000000000000000000000000000000000000   000000                 0000000000                                                                  000018
1020620074500018000090006902020080   0000000000000000000000000000000001226073               000000000000 009030706170093007265                    0706170000000010000003000000100000000000000000000000000             000000000000000000000000000000000000000000000000000000000000000000000000000000   000000                 0000000000                                                                  000019
1020620074500018000090006902020080   0000000000000000000000000000000001226072               000000000000 009030706170093007264                    0706170000000010000003000000100000000000000000000000000             000000000000000000000000000000000000000000000000000000000000000000000000000000   000000                 0000000000                                                                  000020
1020620074500018000090006902020080   0000000000000000000000000000000001226067               000000000000 009030706170093007260                    0706170000000004000003000000100000000000000000000000000             000000000000000000000000000000000000000000000000000000000000000000000000000000   000000                 0000000000                                                                  000021
1020620074500018000090006902020080   0000000000000000000000000000000001226063               000000000000 009030706170093007258                    0706170000000001500003000000100000000000000000000000000             000000000000000000000000000000000000000000000000000000000000000000000000000000   000000                 0000000000                                                                  000022
1020620074500018000090006902020080   0000000000000000000000000000000001226062               000000000000 009030706170093007257                    0706170000000004000003000000100000000000000000000000000             000000000000000000000000000000000000000000000000000000000000000000000000000000   000000                 0000000000                                                                  000023
1020620074500018000090006902020080   0000000000000000000000000000000001226058               000000000000 009030706170093007254                    0706170000000001500003000000100000000000000000000000000             000000000000000000000000000000000000000000000000000000000000000000000000000000   000000                 0000000000                                                                  000024
1020620074500018000090006902020080   0000000000000000000000000000000001226057               000000000000 009030706170081004031                    0706170000000037500003000000100000000000000000000000000             000000000000000000000000000000000000000000000000000000000000000000000000000000   000000                 0000000000                                                                  000025
1020620074500018000090006902020080   0000000000000000000000000000000001226056               000000000000 009030706170093007253                    0706170000000001500003000000100000000000000000000000000             000000000000000000000000000000000000000000000000000000000000000000000000000000   000000                 0000000000                                                                  000026
1020620074500018000090006902020080   0000000000000000000000000000000001226055               000000000000 009030706170081004030                    0706170000000021500003000000100000000000000000000000000             000000000000000000000000000000000000000000000000000000000000000000000000000000   000000                 0000000000                                                                  000027
1020620074500018000090006902020080   0000000000000000000000000000000001226054               000000000000 009030706170093007252                    0706170000000001500003000000100000000000000000000000000             000000000000000000000000000000000000000000000000000000000000000000000000000000   000000                 0000000000                                                                  000028
1020620074500018000090006902020080   0000000000000000000000000000000001226053               000000000000 009030706170081004029                    0706170000000002000003000000100000000000000000000000000             000000000000000000000000000000000000000000000000000000000000000000000000000000   000000                 0000000000                                                                  000029
1020620074500018000090006902020080   0000000000000000000000000000000001226052               000000000000 009030706170093007251                    0706170000000004000003000000100000000000000000000000000             000000000000000000000000000000000000000000000000000000000000000000000000000000   000000                 0000000000                                                                  000030
1020620074500018000090006902020080   0000000000000000000000000000000001226051               000000000000 009030706170093007250                    0706170000000004000003000000100000000000000000000000000             000000000000000000000000000000000000000000000000000000000000000000000000000000   000000                 0000000000                                                                  000031
1020620074500018000090006902020080   0000000000000000000000000000000001226049               000000000000 009030706170093007248                    0706170000000001500003000000100000000000000000000000000             000000000000000000000000000000000000000000000000000000000000000000000000000000   000000                 0000000000                                                                  000032
1020620074500018000090006902020080   0000000000000000000000000000000001226048               000000000000 009030706170081004028                    0706170000000002880003000000100000000000000000000000000             000000000000000000000000000000000000000000000000000000000000000000000000000000   000000                 0000000000                                                                  000033
1020620074500018000090006902020080   0000000000000000000000000000000001226044               000000000000 009030706170093007245                    0606170000000001500003000000100000000000000000000000000             000000000000000000000000000000000000000000000000000000000000000000000000000000   000000                 0000000000                                                                  000034
1020620074500018000090006902020080   0000000000000000000000000000000001226043               000000000000 009030706170081004026                    0606170000000004685003000000100000000000000000000000000             000000000000000000000000000000000000000000000000000000000000000000000000000000   000000                 0000000000                                                                  000035
1020620074500018000090006902020080   0000000000000000000000000000000001226040               000000000000 009030706170075001942                    2404170000000056500003000000100000000000000000000000000             000000000000000000000000000000000000000000000000000000000000000000000000000000   000000                 0000000000                                                                  000036
1020620074500018000090006902020080   0000000000000000000000000000000001226039               000000000000 009030706170091003688                    0706170000000003150003000000100000000000000000000000000             000000000000000000000000000000000000000000000000000000000000000000000000000000   000000                 0000000000                                                                  000037
1020620074500018000090006902020080   0000000000000000000000000000000001226037               000000000000 009030706170093007244                    0706170000000004000003000000100000000000000000000000000             000000000000000000000000000000000000000000000000000000000000000000000000000000   000000                 0000000000                                                                  000038
1020620074500018000090006902020080   0000000000000000000000000000000001226036               000000000000 009030706170093007243                    0706170000000001500003000000100000000000000000000000000             000000000000000000000000000000000000000000000000000000000000000000000000000000   000000                 0000000000                                                                  000039
1020620074500018000090006902020080   0000000000000000000000000000000001226034               000000000000 009030706170093007241                    0706170000000005880003000000100000000000000000000000000             000000000000000000000000000000000000000000000000000000000000000000000000000000   000000                 0000000000                                                                  000040
1020620074500018000090006902020080   0000000000000000000000000000000001226033               000000000000 009030706170093007240                    0706170000000007000003000000100000000000000000000000000             000000000000000000000000000000000000000000000000000000000000000000000000000000   000000                 0000000000                                                                  000041
1020620074500018000090006902020080   0000000000000000000000000000000001226032               000000000000 009030706170093007239                    0706170000000001500003000000100000000000000000000000000             000000000000000000000000000000000000000000000000000000000000000000000000000000   000000                 0000000000                                                                  000042
1020620074500018000090006902020080   0000000000000000000000000000000001226031               000000000000 009030706170093007238                    0706170000000001500003000000100000000000000000000000000             000000000000000000000000000000000000000000000000000000000000000000000000000000   000000                 0000000000                                                                  000043
1020620074500018000090006902020080   0000000000000000000000000000000001226030               000000000000 009030706170093007237                    0706170000000001500003000000100000000000000000000000000             000000000000000000000000000000000000000000000000000000000000000000000000000000   000000                 0000000000                                                                  000044
1020620074500018000090006902020080   0000000000000000000000000000000001226029               000000000000 009030706170093007236                    0606170000000001500003000000100000000000000000000000000             000000000000000000000000000000000000000000000000000000000000000000000000000000   000000                 0000000000                                                                  000045
1020620074500018000090006902020080   0000000000000000000000000000000001226028               000000000000 009030706170081004024                    0606170000000004685003000000100000000000000000000000000             000000000000000000000000000000000000000000000000000000000000000000000000000000   000000                 0000000000                                                                  000046
1020620074500018000090006902020080   0000000000000000000000000000000001226027               000000000000 009030706170093007235                    0706170000000011172003000000100000000000000000000000000             000000000000000000000000000000000000000000000000000000000000000000000000000000   000000                 0000000000                                                                  000047
1020620074500018000090006902020080   0000000000000000000000000000000001226023               000000000000 009030706170093007231                    0706170000000010000003000000100000000000000000000000000             000000000000000000000000000000000000000000000000000000000000000000000000000000   000000                 0000000000                                                                  000048
1020620074500018000090006902020080   0000000000000000000000000000000001226021               000000000000 009030706170093007229                    0706170000000006000003000000100000000000000000000000000             000000000000000000000000000000000000000000000000000000000000000000000000000000   000000                 0000000000                                                                  000049
1020620074500018000090006902020080   0000000000000000000000000000000001226020               000000000000 009030706170093007228                    0706170000000005000003000000100000000000000000000000000             000000000000000000000000000000000000000000000000000000000000000000000000000000   000000                 0000000000                                                                  000050
1020620074500018000090006902020080   0000000000000000000000000000000001226019               000000000000 009030706170093007227                    0606170000000001500003000000100000000000000000000000000             000000000000000000000000000000000000000000000000000000000000000000000000000000   000000                 0000000000                                                                  000051
1020620074500018000090006902020080   0000000000000000000000000000000001226018               000000000000 009030706170081004023                    0606170000000006000003000000100000000000000000000000000             000000000000000000000000000000000000000000000000000000000000000000000000000000   000000                 0000000000                                                                  000052
1020620074500018000090006902020080   0000000000000000000000000000000001226015               000000000000 009030706170075002566                    0706170000000025137003000000100000000000000000000000000             000000000000000000000000000000000000000000000000000000000000000000000000000000   000000                 0000000000                                                                  000053
1020620074500018000090006902020080   0000000000000000000000000000000001226011               000000000000 009030706170093007225                    0706170000000001500003000000100000000000000000000000000             000000000000000000000000000000000000000000000000000000000000000000000000000000   000000                 0000000000                                                                  000054
1020620074500018000090006902020080   0000000000000000000000000000000001226010               000000000000 009030706170093007224                    0706170000000001500003000000100000000000000000000000000             000000000000000000000000000000000000000000000000000000000000000000000000000000   000000                 0000000000                                                                  000055
1020620074500018000090006902020080   0000000000000000000000000000000001226009               000000000000 009030706170081004022                    0606170000000003500003000000100000000000000000000000000             000000000000000000000000000000000000000000000000000000000000000000000000000000   000000                 0000000000                                                                  000056
1020620074500018000090006902020080   0000000000000000000000000000000001226004               000000000000 009030706170093007221                    0606170000000001500003000000100000000000000000000000000             000000000000000000000000000000000000000000000000000000000000000000000000000000   000000                 0000000000                                                                  000057
1020620074500018000090006902020080   0000000000000000000000000000000001226014               000000000000 0090207061700750025651226014             2006170000000013272003005660100000000000000000000000000             000000000000000000000000000000000000000000000000000000000000000000000000000000   000000                 0000000000                                                                  000058
1020620074500018000090006902020080   0000000000000000000000000000000001226022               000000000000 0090207061700930072301226022             0806170000000001500003007860100000000000000000000000000             000000000000000000000000000000000000000000000000000000000000000000000000000000   000000                 0000000000                                                                  000059
1020620074500018000090006902020080   0000000000000000000000000000000001226046               000000000000 0090207061700810040271226046             0806170000000003000003005660100000000000000000000000000             000000000000000000000000000000000000000000000000000000000000000000000000000000   000000                 0000000000                                                                  000060
1020620074500018000090006902020080   0000000000000000000000000000000001226061               000000000000 0090207061700910036891226061             0806170000000003150003005660100000000000000000000000000             000000000000000000000000000000000000000000000000000000000000000000000000000000   000000                 0000000000                                                                  000061
1020620074500018000090006902020080   0000000000000000000000000000000001226012               000000000000 0090207061700930072261226012             2006170000000210000003000690100000000000000000000000000             000000000000000000000000000000000000000000000000000000000000000000000000000000   000000                 0000000000                                                                  000062
1020620074500018000090006902020080   0000000000000000000000000000000001226024               000000000000 0090207061700930072321226024             0906170000000331226003000690100000000000000000000000000             000000000000000000000000000000000000000000000000000000000000000000000000000000   000000                 0000000000                                                                  000063
1020620074500018000090006902020080   0000000000000000000000000000000001226026               000000000000 0090207061700930072341226026             0806170000000001500003000690100000000000000000000000000             000000000000000000000000000000000000000000000000000000000000000000000000000000   000000                 0000000000                                                                  000064
1020620074500018000090006902020080   0000000000000000000000000000000001226059               000000000000 0090207061700930072551226059             0806170000000001500003000690100000000000000000000000000             000000000000000000000000000000000000000000000000000000000000000000000000000000   000000                 0000000000                                                                  000065
1020620074500018000090006902020080   0000000000000000000000000000000001226035               000000000000 0090207061700930072421226035             1506170000000001500003005660100000000000000000000000000             000000000000000000000000000000000000000000000000000000000000000000000000000000   000000                 0000000000                                                                  000066
1020620074500018000090006902020080   0000000000000000000000000000000001226008               000000000000 0090207061700930072231226008             0906170000000015000003000690100000000000000000000000000             000000000000000000000000000000000000000000000000000000000000000000000000000000   000000                 0000000000                                                                  000067
1020620074500018000090006902020080   0000000000000000000000000000000001226042               000000000000 0090207061700810039991226042             0906170000000047220003000690100000000000000000000000000             000000000000000000000000000000000000000000000000000000000000000000000000000000   000000                 0000000000                                                                  000068
1020620074500018000090006902020080   0000000000000000000000000000000001226013               000000000000 0090207061700750025641226013             2006170000000039816003005660100000000000000000000000000             000000000000000000000000000000000000000000000000000000000000000000000000000000   000000                 0000000000                                                                  000069
1020620074500018000090006902020080   0000000000000000000000000000000001226078               000000000000 0090207061700910026411226078             0906170000000003150003000690100000000000000000000000000             000000000000000000000000000000000000000000000000000000000000000000000000000000   000000                 0000000000                                                                  000070
1020620074500018000090006902020080   0000000000000000000000000000000001226045               000000000000 0090207061700930072461226045             0806170000000015000003000690100000000000000000000000000             000000000000000000000000000000000000000000000000000000000000000000000000000000   000000                 0000000000                                                                  000071
1020620074500018000090006902020080   0000000000000000000000000000000001226005               000000000000 0090207061700930072221226005             2606170000000210000003000690100000000000000000000000000             000000000000000000000000000000000000000000000000000000000000000000000000000000   000000                 0000000000                                                                  000072
1020620074500018000090006902020080   0000000000000000000000000000000001226071               000000000000 0090207061700930072631226071             0806170000000001500003020630100000000000000000000000000             000000000000000000000000000000000000000000000000000000000000000000000000000000   000000                 0000000000                                                                  000073
1020620074500018000090006902020080   0000000000000000000000000000000001226006               000000000000 0090207061700750025621226006             2806170000000035412003000690100000000000000000000000000             000000000000000000000000000000000000000000000000000000000000000000000000000000   000000                 0000000000                                                                  000074
1020620074500018000090006902020080   0000000000000000000000000000000001226069               000000000000 0090207061700930072611226069             0806170000000001500003000690100000000000000000000000000             000000000000000000000000000000000000000000000000000000000000000000000000000000   000000                 0000000000                                                                  000075
1020620074500018000090006902020080   0000000000000000000000000000000001226050               000000000000 0090207061700930072491226050             0906170000000016758003000690100000000000000000000000000             000000000000000000000000000000000000000000000000000000000000000000000000000000   000000                 0000000000                                                                  000076
1020620074500018000090006902020080   0000000000000000000000000000000001226017               000000000000 0090207061700910036871226017             1606170000000049392003000690100000000000000000000000000             000000000000000000000000000000000000000000000000000000000000000000000000000000   000000                 0000000000                                                                  000077
1020620074500018000090006902020080   0000000000000000000000000000000001226064               000000000000 0090207061700930072591226064             0806170000000004000003020630100000000000000000000000000             000000000000000000000000000000000000000000000000000000000000000000000000000000   000000                 0000000000                                                                  000078
1020620074500018000090006902020080   0000000000000000000000000000000001226038               000000000000 0090207061700810040251226038             1006170000000008163003000690100000000000000000000000000             000000000000000000000000000000000000000000000000000000000000000000000000000000   000000                 0000000000                                                                  000079
1020620074500018000090006902020080   0000000000000000000000000000000001226041               000000000000 0090207061700750024521226041             0906170000000023742003000690100000000000000000000000000             000000000000000000000000000000000000000000000000000000000000000000000000000000   000000                 0000000000                                                                  000080
1020620074500018000090006902020080   0000000000000000000000000000000001226007               000000000000 0090207061700750025631226007             2806170000000008853003000690100000000000000000000000000             000000000000000000000000000000000000000000000000000000000000000000000000000000   000000                 0000000000                                                                  000081
1020620074500018000090006902020080   0000000000000000000000000000000001226060               000000000000 0090207061700930072561226060             0806170000000001500003005660100000000000000000000000000             000000000000000000000000000000000000000000000000000000000000000000000000000000   000000                 0000000000                                                                  000082
1020620074500018000090006902020080   0000000000000000000000000000000001226016               000000000000 0090207061700910036861226016             1606170000000024696003000690100000000000000000000000000             000000000000000000000000000000000000000000000000000000000000000000000000000000   000000                 0000000000                                                                  000083
1020620074500018000090006902020080   0000000000000000000000000000000001226074               000000000000 0090207061700930072661226074             0806170000000001500003000690100000000000000000000000000             000000000000000000000000000000000000000000000000000000000000000000000000000000   000000                 0000000000                                                                  000084
1020620074500018000090006902020080   0000000000000000000000000000000001226075               000000000000 0090207061700930072671226075             0806170000000008000003005660100000000000000000000000000             000000000000000000000000000000000000000000000000000000000000000000000000000000   000000                 0000000000                                                                  000085
1020620074500018000090006902020080   0000000000000000000000000000000001226066               000000000000 0090207061700810040331226066             0906170000000010300003000690100000000000000000000000000             000000000000000000000000000000000000000000000000000000000000000000000000000000   000000                 0000000000                                                                  000086
1020620074500018000090006902020080   0000000000000000000000000000000001226047               000000000000 0090207061700930072471226047             0906170000000013268003000690100000000000000000000000000             000000000000000000000000000000000000000000000000000000000000000000000000000000   000000                 0000000000                                                                  000087
1020620074500018000090006902020080   0000000000000000000000000000000001226025               000000000000 0090207061700930072331226025             0806170000000001500003000690100000000000000000000000000             000000000000000000000000000000000000000000000000000000000000000000000000000000   000000                 0000000000                                                                  000088
1020620074500018000090006902020080   0000000000000000000000000000000001226070               000000000000 0090207061700930072621226070             0806170000000001500003006130100000000000000000000000000             000000000000000000000000000000000000000000000000000000000000000000000000000000   000000                 0000000000                                                                  000089
1020620074500018000090006902020080   0000000000000000000000000000000001226076               000000000000 0090207061700930072681226076             0806170000000001500003007860100000000000000000000000000             000000000000000000000000000000000000000000000000000000000000000000000000000000   000000                 0000000000                                                                  000090
1020620074500018000090006902020080   0000000000000000000000000000000001226065               000000000000 0090207061700810040321226065             0906170000000006000003000690100000000000000000000000000             000000000000000000000000000000000000000000000000000000000000000000000000000000   000000                 0000000000                                                                  000091
1020000000000000000090006902020080   0000000000000000000000000000000001226076               000000000000 0090607061700930072681226076             0806170000000001500237007860100000000000000000000000000             000000000000000000000000000000000000000000000000150000000000000000000000000000   070617                 000000COMP                                                                  000092
1020000000000000000090006902020080   0000000000000000000000000000000001226100               000000000000 0090608061700910036931226100             0906170000000012250001005660100000000000000000000000000             000000000000000000000000000000000000000000000001225000000000000000000000000000   080617                 000000COMP                                                                  000002
1020000000000000000090006902020080   0000000000000000000000000000000001226094               000000000000 0090608061700810040361226094             1006170000001926220004001950100000000000000000000000000             000000000000000000000000000000000000000000000192622000000000000000000000000000   080617                 000000COMP                                                                  000003
1020000000000000000090006902020080   0000000000000000000000000000000001226093               000000000000 0090608061700810040351226093             1006170000000112881004001950100000000000000000000000000             000000000000000000000000000000000000000000000011288100000000000000000000000000   080617                 000000COMP                                                                  000004
1020000000000000000090006902020080   0000000000000000000000000000000001226092               000000000000 0090608061700910036921226092             0906170000000003150001005660100000000000000000000000000             000000000000000000000000000000000000000000000000315000000000000000000000000000   080617                 000000COMP                                                                  000005
1020000000000000000090006902020080   0000000000000000000000000000000001226091               000000000000 0090608061700930072731226091             0906170000000001500001005660100000000000000000000000000             000000000000000000000000000000000000000000000000150000000000000000000000000000   080617                 000000COMP                                                                  000006
1020000000000000000090006902020080   0000000000000000000000000000000001226090               000000000000 0090608061700930072721226090             0906170000000001500237007860100000000000000000000000000             000000000000000000000000000000000000000000000000150000000000000000000000000000   080617                 000000COMP                                                                  000007
1020000000000000000090006902020080   0000000000000000000000000000000001226066               000000000000 0090608061700810040331226066             0906170000000010300104020630100000000000000000000000000             000000000000000000000000000000000000000000000001030000000000000000000000000000   080617                 000000COMP                                                                  000008
1020000000000000000090006902020080   0000000000000000000000000000000001226059               000000000000 0090608061700930072551226059             0806170000000001500104020630100000000000000000000000000             000000000000000000000000000000000000000000000000150000000000000000000000000000   080617                 000000COMP                                                                  000009
1020000000000000000090006902020080   0000000000000000000000000000000001226041               000000000000 0090608061700750024521226041             0906170000000023742001005660100000000000000000000000000             000000000000000000000000000000000000000000000002374200000000000000000000000000   080617                 000000COMP                                                                  000010
1020000000000000000090006902020080   0000000000000000000000000000000001226038               000000000000 0090608061700810040251226038             1006170000000008163237033910100000000000000000000000000             000000000000000000000000000000000000000000000000816300000000000000000000000000   080617                 000000COMP                                                                  000011
1020000000000000000090006902020080   0000000000000000000000000000000001226024               000000000000 0090608061700930072321226024             0906170000000331226001005660100000000000000000000000000             000000000000000000000000000000000000000000000033122600000000000000000000000000   080617                 000000COMP                                                                  000012
1020000000000000000090006902020080   0000000000000000000000000000000001226012               000000000000 0090608061700930072261226012             2006170000000210000001010530100000000000000000000000000             000000000000000000000000000000000000000000000021000000000000000000000000000000   080617                 000000COMP                                                                  000013
1020000000000000000090006902020080   0000000000000000000000000000000001226008               000000000000 0090608061700930072231226008             0906170000000015000104020630100000000000000000000000000             000000000000000000000000000000000000000000000001500000000000000000000000000000   080617                 000000COMP                                                                  000014
1020620074500018000090006902020080   0000000000000000000000000000000001226117               000000000000 009030806170081003770                    1005170000000017977003000000100000000000000000000000000             000000000000000000000000000000000000000000000000000000000000000000000000000000   000000                 0000000000                                                                  000015
1020620074500018000090006902020080   0000000000000000000000000000000001226119               000000000000 009030806170091003223                    0806170000000034650003000000100000000000000000000000000             000000000000000000000000000000000000000000000000000000000000000000000000000000   000000                 0000000000                                                                  000016
1020620074500018000090006902020080   0000000000000000000000000000000001226118               000000000000 009030806170081003771                    1005170000000017977003000000100000000000000000000000000             000000000000000000000000000000000000000000000000000000000000000000000000000000   000000                 0000000000                                                                  000017
1020620074500018000090006902020080   0000000000000000000000000000000001226084               000000000000 009030806170093007128                    2905170000000001515003000000100000000000000000000000000             000000000000000000000000000000000000000000000000000000000000000000000000000000   000000                 0000000000                                                                  000018
1020620074500018000090006902020080   0000000000000000000000000000000001226110               000000000000 009030806170093007279                    0806170000000374315003000000100000000000000000000000000             000000000000000000000000000000000000000000000000000000000000000000000000000000   000000                 0000000000                                                                  000019
1020620074500018000090006902020080   0000000000000000000000000000000001226105               000000000000 009030806170093007277                    0806170000000005000003000000100000000000000000000000000             000000000000000000000000000000000000000000000000000000000000000000000000000000   000000                 0000000000                                                                  000020
1020620074500018000090006902020080   0000000000000000000000000000000001226109               000000000000 009030806170082000009                    0806170000001247718003000000100000000000000000000000000             000000000000000000000000000000000000000000000000000000000000000000000000000000   000000                 0000000000                                                                  000021
1020620074500018000090006902020080   0000000000000000000000000000000001226095               000000000000 009030806170093007274                    0806170000000045000003000000100000000000000000000000000             000000000000000000000000000000000000000000000000000000000000000000000000000000   000000                 0000000000                                                                  000022
1020620074500018000090006902020080   0000000000000000000000000000000001226107               000000000000 009030806170093007278                    0806170000000001500003000000100000000000000000000000000             000000000000000000000000000000000000000000000000000000000000000000000000000000   000000                 0000000000                                                                  000023
1020620074500018000090006902020080   0000000000000000000000000000000001226101               000000000000 009030806170093007276                    0806170000000001500003000000100000000000000000000000000             000000000000000000000000000000000000000000000000000000000000000000000000000000   000000                 0000000000                                                                  000024
1020620074500018000090006902020080   0000000000000000000000000000000001226115               000000000000 009030806170093007284                    0806170000000008002003000000100000000000000000000000000             000000000000000000000000000000000000000000000000000000000000000000000000000000   000000                 0000000000                                                                  000025
1020620074500018000090006902020080   0000000000000000000000000000000001226099               000000000000 009030806170075002231                    0806170000000017444003000000100000000000000000000000000             000000000000000000000000000000000000000000000000000000000000000000000000000000   000000                 0000000000                                                                  000026
1020620074500018000090006902020080   0000000000000000000000000000000001226041               000000000000 009030806170075002452                    0906170000000023742003000000100000000000000000000000000             000000000000000000000000000000000000000000000000000000000000000000000000000000   000000                 0000000000                                                                  000027
1020620074500018000090006902020080   0000000000000000000000000000000001226078               000000000000 009030806170091002641                    0906170000000003150003000000100000000000000000000000000             000000000000000000000000000000000000000000000000000000000000000000000000000000   000000                 0000000000                                                                  000028
1020620074500018000090006902020080   0000000000000000000000000000000001226097               000000000000 009030806170093006802                    1005170000000004863003000000100000000000000000000000000             000000000000000000000000000000000000000000000000000000000000000000000000000000   000000                 0000000000                                                                  000029
1020620074500018000090006902020080   0000000000000000000000000000000001226088               000000000000 009030806170093002618                    3007140000000005050003000000100000000000000000000000000             000000000000000000000000000000000000000000000000000000000000000000000000000000   000000                 0000000024                                                                  000030
1020620074500018000090006902020080   0000000000000000000000000000000001226113               000000000000 0090208061700930072821226113             1506170000000010000003000690100000000000000000000000000             000000000000000000000000000000000000000000000000000000000000000000000000000000   000000                 0000000000                                                                  000031
1020620074500018000090006902020080   0000000000000000000000000000000001226102               000000000000 0090208061700910036941226102             0707170000000462000003000690100000000000000000000000000             000000000000000000000000000000000000000000000000000000000000000000000000000000   000000                 0000000000                                                                  000032
1020620074500018000090006902020080   0000000000000000000000000000000001226096               000000000000 0090208061700930072751226096             1606170000000150000003000690100000000000000000000000000             000000000000000000000000000000000000000000000000000000000000000000000000000000   000000                 0000000000                                                                  000033
1020620074500018000090006902020080   0000000000000000000000000000000001226094               000000000000 0090208061700810040361226094             1006170000001926220003001950100000000000000000000000000             000000000000000000000000000000000000000000000000000000000000000000000000000000   000000                 0000000000                                                                  000034
1020620074500018000090006902020080   0000000000000000000000000000000001226098               000000000000 0090208061700750025681226098             1606170000000004189003000690100000000000000000000000000             000000000000000000000000000000000000000000000000000000000000000000000000000000   000000                 0000000000                                                                  000035
1020620074500018000090006902020080   0000000000000000000000000000000001226090               000000000000 0090208061700930072721226090             0906170000000001500003007860100000000000000000000000000             000000000000000000000000000000000000000000000000000000000000000000000000000000   000000                 0000000000                                                                  000036
1020620074500018000090006902020080   0000000000000000000000000000000001226100               000000000000 0090208061700910036931226100             0906170000000012250003005660100000000000000000000000000             000000000000000000000000000000000000000000000000000000000000000000000000000000   000000                 0000000000                                                                  000037
1020620074500018000090006902020080   0000000000000000000000000000000001226104               000000000000 0090208061700750023921226104             1206170000000031343003000690100000000000000000000000000             000000000000000000000000000000000000000000000000000000000000000000000000000000   000000                 0000000000                                                                  000038
1020620074500018000090006902020080   0000000000000000000000000000000001226112               000000000000 0090208061700930072811226112             1506170000000010000003000690100000000000000000000000000             000000000000000000000000000000000000000000000000000000000000000000000000000000   000000                 0000000000                                                                  000039
1020620074500018000090006902020080   0000000000000000000000000000000001226085               000000000000 0090208061700930071791226085             0906170000000010800003000690100000000000000000000000000             000000000000000000000000000000000000000000000000000000000000000000000000000000   000000                 0000000000                                                                  000040
1020620074500018000090006902020080   0000000000000000000000000000000001226083               000000000000 0090208061700810039641226083             0906170000000036225003000690100000000000000000000000000             000000000000000000000000000000000000000000000000000000000000000000000000000000   000000                 0000000000                                                                  000041
1020620074500018000090006902020080   0000000000000000000000000000000001226103               000000000000 0090208061700750025691226103             0707170000000018211003000690100000000000000000000000000             000000000000000000000000000000000000000000000000000000000000000000000000000000   000000                 0000000000                                                                  000042
1020620074500018000090006902020080   0000000000000000000000000000000001226116               000000000000 0090208061700750024681226116             1206170000000011004003000690100000000000000000000000000             000000000000000000000000000000000000000000000000000000000000000000000000000000   000000                 0000000000                                                                  000043
1020620074500018000090006902020080   0000000000000000000000000000000001226091               000000000000 0090208061700930072731226091             0906170000000001500003005660100000000000000000000000000             000000000000000000000000000000000000000000000000000000000000000000000000000000   000000                 0000000000                                                                  000044
1020620074500018000090006902020080   0000000000000000000000000000000001226114               000000000000 0090208061700930072831226114             0906170000000001500003000690100000000000000000000000000             000000000000000000000000000000000000000000000000000000000000000000000000000000   000000                 0000000000                                                                  000045
1020620074500018000090006902020080   0000000000000000000000000000000001226093               000000000000 0090208061700810040351226093             1006170000000112881003001950100000000000000000000000000             000000000000000000000000000000000000000000000000000000000000000000000000000000   000000                 0000000000                                                                  000046
1020620074500018000090006902020080   0000000000000000000000000000000001226108               000000000000 0090208061700750025701226108             1206170000000044856003020630100000000000000000000000000             000000000000000000000000000000000000000000000000000000000000000000000000000000   000000                 0000000000                                                                  000047
1020620074500018000090006902020080   0000000000000000000000000000000001226089               000000000000 0090208061700910036911226089             0906170000000070419003000690100000000000000000000000000             000000000000000000000000000000000000000000000000000000000000000000000000000000   000000                 0000000000                                                                  000048
1020620074500018000090006902020080   0000000000000000000000000000000001226092               000000000000 0090208061700910036921226092             0906170000000003150003005660100000000000000000000000000             000000000000000000000000000000000000000000000000000000000000000000000000000000   000000                 0000000000                                                                  000049
1020620074500018000090006902020080   0000000000000000000000000000000001226111               000000000000 0090208061700930072801226111             1506170000000010000003000690100000000000000000000000000             000000000000000000000000000000000000000000000000000000000000000000000000000000   000000                 0000000000                                                                  000050
1020000000000000000090006902020080   0000000000000000000000000000000001226108               000000000000 0090608061700750025701226108             1206170000000044856104020630100000000000000000000000000             000000000000000000000000000000000000000000000004485600000000000000000000000000   080617                 000000COMP                                                                  000051
1020000000000000000090006902020080   0000000000000000000000000000000001226160               000000000000 0090609061700750025731226160             1306170000000009677001005660100000000000000000000000000             000000000000000000000000000000000000000000000000967700000000000000000000000000   090617                 000000COMP                                                                  000002
1020000000000000000090006902020080   0000000000000000000000000000000001226159               000000000000 0090609061700750025721226159             1306170000000009338001005660100000000000000000000000000             000000000000000000000000000000000000000000000000933800000000000000000000000000   090617                 000000COMP                                                                  000003
1020000000000000000090006902020080   0000000000000000000000000000000001226158               000000000000 0090609061700910036781226158             1306170000000098280001005660100000000000000000000000000             000000000000000000000000000000000000000000000009828000000000000000000000000000   090617                 000000COMP                                                                  000004
1020000000000000000090006902020080   0000000000000000000000000000000001226143               000000000000 0090609061700810040451226143             1006170000000001925001005660100000000000000000000000000             000000000000000000000000000000000000000000000000192500000000000000000000000000   090617                 000000COMP                                                                  000005
1020000000000000000090006902020080   0000000000000000000000000000000001226140               000000000000 0090609061700810040441226140             1006170000000015702001005660100000000000000000000000000             000000000000000000000000000000000000000000000001570200000000000000000000000000   090617                 000000COMP                                                                  000006
1020000000000000000090006902020080   0000000000000000000000000000000001226134               000000000000 0090609061700910036991226134             3006170000000017325237007860100000000000000000000000000             000000000000000000000000000000000000000000000001732500000000000000000000000000   090617                 000000COMP                                                                  000007
1020000000000000000090006902020080   0000000000000000000000000000000001226133               000000000000 0090609061700910036981226133             1306170000000020475001005660100000000000000000000000000             000000000000000000000000000000000000000000000002047500000000000000000000000000   090617                 000000COMP                                                                  000008
1020000000000000000090006902020080   0000000000000000000000000000000001226129               000000000000 0090609061700930072891226129             1306170000000002000001005660100000000000000000000000000             000000000000000000000000000000000000000000000000200000000000000000000000000000   090617                 000000COMP                                                                  000009
1020000000000000000090006902020080   0000000000000000000000000000000001226083               000000000000 0090609061700810039641226083             0906170000000036225001005660100000000000000000000000000             000000000000000000000000000000000000000000000003622500000000000000000000000000   090617                 000000COMP                                                                  000010
1020000000000000000090006902020080   0000000000000000000000000000000001226078               000000000000 0090609061700910026411226078             0906170000000003150237007860100000000000000000000000000             000000000000000000000000000000000000000000000000315000000000000000000000000000   090617                 000000COMP                                                                  000011
1020000000000000000090006902020080   0000000000000000000000000000000001226050               000000000000 0090609061700930072491226050             0906170000000016758104020630100000000000000000000000000             000000000000000000000000000000000000000000000001675800000000000000000000000000   090617                 000000COMP                                                                  000012
1020000000000000000090006902020080   0000000000000000000000000000000001226042               000000000000 0090609061700810039991226042             0906170000000047220001016380100000000000000000000000000             000000000000000000000000000000000000000000000004722000000000000000000000000000   090617                 000000COMP                                                                  000013
1020000000000000000090006902020080   0000000000000000000000000000000001226007               000000000000 0090609061700750025631226007             2806170000000008853104020630100000000000000000000000000             000000000000000000000000000000000000000000000000885300000000000000000000000000   090617                 000000COMP                                                                  000014
1020000000000000000090006902020080   0000000000000000000000000000000001226006               000000000000 0090609061700750025621226006             2806170000000035412104020630100000000000000000000000000             000000000000000000000000000000000000000000000003541200000000000000000000000000   090617                 000000COMP                                                                  000015
1020620074500018000090006902020080   0000000000000000000000000000000001226122               000000000000 009030906170081004039                    0906170000000041250003000000100000000000000000000000000             000000000000000000000000000000000000000000000000000000000000000000000000000000   000000                 0000000000                                                                  000016
1020620074500018000090006902020080   0000000000000000000000000000000001226139               000000000000 009030906170093007292                    0906170000000001500003000000100000000000000000000000000             000000000000000000000000000000000000000000000000000000000000000000000000000000   000000                 0000000000                                                                  000017
1020620074500018000090006902020080   0000000000000000000000000000000001226156               000000000000 009030906170081004050                    0906170000000008100003000000100000000000000000000000000             000000000000000000000000000000000000000000000000000000000000000000000000000000   000000                 0000000000                                                                  000018
1020620074500018000090006902020080   0000000000000000000000000000000001226144               000000000000 009030906170091003701                    0906170000000003150003000000100000000000000000000000000             000000000000000000000000000000000000000000000000000000000000000000000000000000   000000                 0000000000                                                                  000019
1020620074500018000090006902020080   0000000000000000000000000000000001226123               000000000000 009030906170093007286                    0906170000000001500003000000100000000000000000000000000             000000000000000000000000000000000000000000000000000000000000000000000000000000   000000                 0000000000                                                                  000020
1020620074500018000090006902020080   0000000000000000000000000000000001226148               000000000000 009030906170093007295                    0906170000000001500003000000100000000000000000000000000             000000000000000000000000000000000000000000000000000000000000000000000000000000   000000                 0000000000                                                                  000021
1020620074500018000090006902020080   0000000000000000000000000000000001226146               000000000000 009030906170093007294                    0906170000000001500003000000100000000000000000000000000             000000000000000000000000000000000000000000000000000000000000000000000000000000   000000                 0000000000                                                                  000022
1020620074500018000090006902020080   0000000000000000000000000000000001226138               000000000000 009030906170081004043                    0906170000000006795003000000100000000000000000000000000             000000000000000000000000000000000000000000000000000000000000000000000000000000   000000                 0000000000                                                                  000023
1020620074500018000090006902020080   0000000000000000000000000000000001226124               000000000000 009030906170081004040                    0906170000000001000003000000100000000000000000000000000             000000000000000000000000000000000000000000000000000000000000000000000000000000   000000                 0000000000                                                                  000024
1020620074500018000090006902020080   0000000000000000000000000000000001226145               000000000000 009030906170081004046                    0906170000000003900003000000100000000000000000000000000             000000000000000000000000000000000000000000000000000000000000000000000000000000   000000                 0000000000                                                                  000025
1020620074500018000090006902020080   0000000000000000000000000000000001226155               000000000000 009030906170093007299                    0906170000000001500003000000100000000000000000000000000             000000000000000000000000000000000000000000000000000000000000000000000000000000   000000                 0000000000                                                                  000026
1020620074500018000090006902020080   0000000000000000000000000000000001226136               000000000000 009030906170093007290                    0906170000000004000003000000100000000000000000000000000             000000000000000000000000000000000000000000000000000000000000000000000000000000   000000                 0000000000                                                                  000027
1020620074500018000090006902020080   0000000000000000000000000000000001226135               000000000000 009030906170081004042                    0906170000000009625003000000100000000000000000000000000             000000000000000000000000000000000000000000000000000000000000000000000000000000   000000                 0000000000                                                                  000028
1020620074500018000090006902020080   0000000000000000000000000000000001226157               000000000000 009030906170093007300                    0906170000000001500003000000100000000000000000000000000             000000000000000000000000000000000000000000000000000000000000000000000000000000   000000                 0000000000                                                                  000029
1020620074500018000090006902020080   0000000000000000000000000000000001226126               000000000000 009030906170081004041                    0906170000000001000003000000100000000000000000000000000             000000000000000000000000000000000000000000000000000000000000000000000000000000   000000                 0000000000                                                                  000030
1020620074500018000090006902020080   0000000000000000000000000000000001226120               000000000000 009030906170081004038                    0906170000000003900003000000100000000000000000000000000             000000000000000000000000000000000000000000000000000000000000000000000000000000   000000                 0000000000                                                                  000031
1020620074500018000090006902020080   0000000000000000000000000000000001226125               000000000000 009030906170093007287                    0906170000000001500003000000100000000000000000000000000             000000000000000000000000000000000000000000000000000000000000000000000000000000   000000                 0000000000                                                                  000032
1020620074500018000090006902020080   0000000000000000000000000000000001226121               000000000000 009030906170093007285                    0906170000000001500003000000100000000000000000000000000             000000000000000000000000000000000000000000000000000000000000000000000000000000   000000                 0000000000                                                                  000033
1020620074500018000090006902020080   0000000000000000000000000000000001226154               000000000000 009030906170081004049                    0906170000000030000003000000100000000000000000000000000             000000000000000000000000000000000000000000000000000000000000000000000000000000   000000                 0000000000                                                                  000034
1020620074500018000090006902020080   0000000000000000000000000000000001226127               000000000000 009030906170093007288                    0906170000000001500003000000100000000000000000000000000             000000000000000000000000000000000000000000000000000000000000000000000000000000   000000                 0000000000                                                                  000035
1020620074500018000090006902020080   0000000000000000000000000000000001226115               000000000000 009030906170093007284                    0906170000000008002003000000100000000000000000000000000             000000000000000000000000000000000000000000000000000000000000000000000000000000   000000                 0000000000                                                                  000036
1020620074500018000090006902020080   0000000000000000000000000000000001226042               000000000000 009030906170081003999                    0906170000000047220003000000100000000000000000000000000             000000000000000000000000000000000000000000000000000000000000000000000000000000   000000                 0000000000                                                                  000037
1020620074500018000090006902020080   0000000000000000000000000000000001226040               000000000000 009030906170075001942                    1506170000000050000003000000100000000000000000000000000             000000000000000000000000000000000000000000000000000000000000000000000000000000   000000                 0000000000                                                                  000038
1020620074500018000090006902020080   0000000000000000000000000000000001226107               000000000000 009030906170093007278                    0906170000000001500003000000100000000000000000000000000             000000000000000000000000000000000000000000000000000000000000000000000000000000   000000                 0000000000                                                                  000039
1020620074500018000090006902020080   0000000000000000000000000000000001226151               000000000000 0090209061700910037021226151             1206170000000003150003000690100000000000000000000000000             000000000000000000000000000000000000000000000000000000000000000000000000000000   000000                 0000000000                                                                  000040
1020620074500018000090006902020080   0000000000000000000000000000000001226140               000000000000 0090209061700810040441226140             1006170000000015702003005660100000000000000000000000000             000000000000000000000000000000000000000000000000000000000000000000000000000000   000000                 0000000000                                                                  000041
1020620074500018000090006902020080   0000000000000000000000000000000001226159               000000000000 0090209061700750025721226159             1306170000000009338003005660100000000000000000000000000             000000000000000000000000000000000000000000000000000000000000000000000000000000   000000                 0000000000                                                                  000042
1020620074500018000090006902020080   0000000000000000000000000000000001226130               000000000000 0090209061700910036951226130             2606170000000037800003000690100000000000000000000000000             000000000000000000000000000000000000000000000000000000000000000000000000000000   000000                 0000000000                                                                  000043
1020620074500018000090006902020080   0000000000000000000000000000000001226161               000000000000 0090209061700930073011226161             1506170000000001500003000690100000000000000000000000000             000000000000000000000000000000000000000000000000000000000000000000000000000000   000000                 0000000000                                                                  000044
1020620074500018000090006902020080   0000000000000000000000000000000001226158               000000000000 0090209061700910036781226158             1306170000000098280003005660100000000000000000000000000             000000000000000000000000000000000000000000000000000000000000000000000000000000   000000                 0000000000                                                                  000045
1020620074500018000090006902020080   0000000000000000000000000000000001226166               000000000000 0090209061700910036761226166             1306170000000115500003000690100000000000000000000000000             000000000000000000000000000000000000000000000000000000000000000000000000000000   000000                 0000000000                                                                  000046
1020620074500018000090006902020080   0000000000000000000000000000000001226150               000000000000 0090209061700930072971226150             1206170000000005027003000690100000000000000000000000000             000000000000000000000000000000000000000000000000000000000000000000000000000000   000000                 0000000000                                                                  000047
1020620074500018000090006902020080   0000000000000000000000000000000001226152               000000000000 0090209061700810040481226152             1406170000000748630003000690100000000000000000000000000             000000000000000000000000000000000000000000000000000000000000000000000000000000   000000                 0000000000                                                                  000048
1020620074500018000090006902020080   0000000000000000000000000000000001226164               000000000000 0090209061700910037041226164             1406170000000034650003020630100000000000000000000000000             000000000000000000000000000000000000000000000000000000000000000000000000000000   000000                 0000000000                                                                  000049
1020620074500018000090006902020080   0000000000000000000000000000000001226128               000000000000 0090209061700750025711226128             1606170000000013500003000690100000000000000000000000000             000000000000000000000000000000000000000000000000000000000000000000000000000000   000000                 0000000000                                                                  000050
1020620074500018000090006902020080   0000000000000000000000000000000001226131               000000000000 0090209061700910036961226131             3006170000000037800003000690100000000000000000000000000             000000000000000000000000000000000000000000000000000000000000000000000000000000   000000                 0000000000                                                                  000051
1020620074500018000090006902020080   0000000000000000000000000000000001226147               000000000000 0090209061700810040471226147             1006170000000029311003000690100000000000000000000000000             000000000000000000000000000000000000000000000000000000000000000000000000000000   000000                 0000000000                                                                  000052
1020620074500018000090006902020080   0000000000000000000000000000000001226133               000000000000 0090209061700910036981226133             1306170000000020475003005660100000000000000000000000000             000000000000000000000000000000000000000000000000000000000000000000000000000000   000000                 0000000000                                                                  000053
1020620074500018000090006902020080   0000000000000000000000000000000001226163               000000000000 0090209061700930073021226163             1506170000000001500003000690100000000000000000000000000             000000000000000000000000000000000000000000000000000000000000000000000000000000   000000                 0000000000                                                                  000054
1020620074500018000090006902020080   0000000000000000000000000000000001226165               000000000000 0090209061700910036731226165             1306170000000057750003000690100000000000000000000000000             000000000000000000000000000000000000000000000000000000000000000000000000000000   000000                 0000000000                                                                  000055
1020620074500018000090006902020080   0000000000000000000000000000000001226153               000000000000 0090209061700930072981226153             1406170000000374315003000690100000000000000000000000000             000000000000000000000000000000000000000000000000000000000000000000000000000000   000000                 0000000000                                                                  000056
1020620074500018000090006902020080   0000000000000000000000000000000001226132               000000000000 0090209061700910036971226132             3006170000000003150003000690100000000000000000000000000             000000000000000000000000000000000000000000000000000000000000000000000000000000   000000                 0000000000                                                                  000057
1020620074500018000090006902020080   0000000000000000000000000000000001226137               000000000000 0090209061700930072911226137             1306170000000015000003000690100000000000000000000000000             000000000000000000000000000000000000000000000000000000000000000000000000000000   000000                 0000000000                                                                  000058
1020620074500018000090006902020080   0000000000000000000000000000000001226162               000000000000 0090209061700910037031226162             1506170000000003150003000690100000000000000000000000000             000000000000000000000000000000000000000000000000000000000000000000000000000000   000000                 0000000000                                                                  000059
1020620074500018000090006902020080   0000000000000000000000000000000001226143               000000000000 0090209061700810040451226143             1006170000000001925003005660100000000000000000000000000             000000000000000000000000000000000000000000000000000000000000000000000000000000   000000                 0000000000                                                                  000060
1020620074500018000090006902020080   0000000000000000000000000000000001226149               000000000000 0090209061700930072961226149             1506170000000050274003000690100000000000000000000000000             000000000000000000000000000000000000000000000000000000000000000000000000000000   000000                 0000000000                                                                  000061
1020620074500018000090006902020080   0000000000000000000000000000000001226134               000000000000 0090209061700910036991226134             3006170000000017325003007860100000000000000000000000000             000000000000000000000000000000000000000000000000000000000000000000000000000000   000000                 0000000000                                                                  000062
1020620074500018000090006902020080   0000000000000000000000000000000001226129               000000000000 0090209061700930072891226129             1306170000000002000003005660100000000000000000000000000             000000000000000000000000000000000000000000000000000000000000000000000000000000   000000                 0000000000                                                                  000063
1020620074500018000090006902020080   0000000000000000000000000000000001226160               000000000000 0090209061700750025731226160             1306170000000009677003005660100000000000000000000000000             000000000000000000000000000000000000000000000000000000000000000000000000000000   000000                 0000000000                                                                  000064
1020000000000000000090006902020080   0000000000000000000000000000000001226164               000000000000 0090609061700910037041226164             1406170000000034650104020630100000000000000000000000000             000000000000000000000000000000000000000000000003465000000000000000000000000000   090617                 000000COMP                                                                  000065
